{
  "_format": "hh-sol-artifact-1",
  "contractName": "Ballot",
  "sourceName": "contracts/TokenizedBallot.sol",
  "abi": [
    {
      "inputs": [
        {
          "internalType": "bytes32[]",
          "name": "proposalNames",
          "type": "bytes32[]"
        },
        {
          "internalType": "address",
          "name": "_voteToken",
          "type": "address"
        },
        {
          "internalType": "uint256",
          "name": "_targetBlock",
          "type": "uint256"
        }
      ],
      "stateMutability": "nonpayable",
      "type": "constructor"
    },
    {
      "inputs": [
        {
          "internalType": "uint256",
          "name": "",
          "type": "uint256"
        }
      ],
      "name": "proposals",
      "outputs": [
        {
          "internalType": "bytes32",
          "name": "name",
          "type": "bytes32"
        },
        {
          "internalType": "uint256",
          "name": "voteCount",
          "type": "uint256"
        }
      ],
      "stateMutability": "view",
      "type": "function"
    },
    {
      "inputs": [],
      "name": "proposalsInfo",
      "outputs": [
        {
          "components": [
            {
              "internalType": "uint256",
              "name": "idx",
              "type": "uint256"
            },
            {
              "internalType": "bytes32",
              "name": "name",
              "type": "bytes32"
            },
            {
              "internalType": "uint256",
              "name": "voteCount",
              "type": "uint256"
            },
            {
              "internalType": "bytes32",
              "name": "isWinning",
              "type": "bytes32"
            }
          ],
          "internalType": "struct Ballot.ProposalInfo[]",
          "name": "",
          "type": "tuple[]"
        }
      ],
      "stateMutability": "view",
      "type": "function"
    },
    {
      "inputs": [],
      "name": "targetBlock",
      "outputs": [
        {
          "internalType": "uint256",
          "name": "",
          "type": "uint256"
        }
      ],
      "stateMutability": "view",
      "type": "function"
    },
    {
      "inputs": [
        {
          "internalType": "uint256",
          "name": "proposal",
          "type": "uint256"
        },
        {
          "internalType": "uint256",
          "name": "_amount",
          "type": "uint256"
        }
      ],
      "name": "vote",
      "outputs": [],
      "stateMutability": "nonpayable",
      "type": "function"
    },
    {
      "inputs": [
        {
          "internalType": "address",
          "name": "account",
          "type": "address"
        }
      ],
      "name": "votePower",
      "outputs": [
        {
          "internalType": "uint256",
          "name": "",
          "type": "uint256"
        }
      ],
      "stateMutability": "view",
      "type": "function"
    },
    {
      "inputs": [
        {
          "internalType": "address",
          "name": "",
          "type": "address"
        }
      ],
      "name": "votePowerSpent",
      "outputs": [
        {
          "internalType": "uint256",
          "name": "",
          "type": "uint256"
        }
      ],
      "stateMutability": "view",
      "type": "function"
    },
    {
      "inputs": [],
      "name": "voteToken",
      "outputs": [
        {
          "internalType": "contract MyToken",
          "name": "",
          "type": "address"
        }
      ],
      "stateMutability": "view",
      "type": "function"
    },
    {
      "inputs": [],
      "name": "winnerName",
      "outputs": [
        {
          "internalType": "bytes32",
          "name": "winnerName_",
          "type": "bytes32"
        }
      ],
      "stateMutability": "view",
      "type": "function"
    },
    {
      "inputs": [],
      "name": "winnerVoteCount",
      "outputs": [
        {
          "internalType": "uint256",
          "name": "winnerVoteCount_",
          "type": "uint256"
        }
      ],
      "stateMutability": "view",
      "type": "function"
    },
    {
      "inputs": [],
      "name": "winningProposal",
      "outputs": [
        {
          "internalType": "uint256",
          "name": "winningProposal_",
          "type": "uint256"
        }
      ],
      "stateMutability": "view",
      "type": "function"
    }
  ],
  "bytecode": "0x60806040523480156200001157600080fd5b506040516200119c3803806200119c833981810160405281019062000037919062000383565b80600181905550816000806101000a81548173ffffffffffffffffffffffffffffffffffffffff021916908373ffffffffffffffffffffffffffffffffffffffff16021790555060005b8351811015620001155760036040518060400160405280868481518110620000ae57620000ad620003fe565b5b60200260200101518152602001600081525090806001815401808255809150506001900390600052602060002090600202016000909190919091506000820151816000015560208201518160010155505080806200010c906200045c565b91505062000081565b50505050620004a9565b6000604051905090565b600080fd5b600080fd5b600080fd5b6000601f19601f8301169050919050565b7f4e487b7100000000000000000000000000000000000000000000000000000000600052604160045260246000fd5b620001838262000138565b810181811067ffffffffffffffff82111715620001a557620001a462000149565b5b80604052505050565b6000620001ba6200011f565b9050620001c8828262000178565b919050565b600067ffffffffffffffff821115620001eb57620001ea62000149565b5b602082029050602081019050919050565b600080fd5b6000819050919050565b620002168162000201565b81146200022257600080fd5b50565b60008151905062000236816200020b565b92915050565b6000620002536200024d84620001cd565b620001ae565b90508083825260208201905060208402830185811115620002795762000278620001fc565b5b835b81811015620002a6578062000291888262000225565b8452602084019350506020810190506200027b565b5050509392505050565b600082601f830112620002c857620002c762000133565b5b8151620002da8482602086016200023c565b91505092915050565b600073ffffffffffffffffffffffffffffffffffffffff82169050919050565b60006200031082620002e3565b9050919050565b620003228162000303565b81146200032e57600080fd5b50565b600081519050620003428162000317565b92915050565b6000819050919050565b6200035d8162000348565b81146200036957600080fd5b50565b6000815190506200037d8162000352565b92915050565b6000806000606084860312156200039f576200039e62000129565b5b600084015167ffffffffffffffff811115620003c057620003bf6200012e565b5b620003ce86828701620002b0565b9350506020620003e18682870162000331565b9250506040620003f4868287016200036c565b9150509250925092565b7f4e487b7100000000000000000000000000000000000000000000000000000000600052603260045260246000fd5b7f4e487b7100000000000000000000000000000000000000000000000000000000600052601160045260246000fd5b6000620004698262000348565b91507fffffffffffffffffffffffffffffffffffffffffffffffffffffffffffffffff82036200049e576200049d6200042d565b5b600182019050919050565b610ce380620004b96000396000f3fe608060405234801561001057600080fd5b506004361061009e5760003560e01c8063609ff1bd11610066578063609ff1bd1461014c5780639e90d0d91461016a578063b384abef1461019a578063e2ba53f0146101b6578063e490e699146101d45761009e565b8063013cf08b146100a35780630a16697a146100d4578063160d66ae146100f25780632670c9cc146101105780632f22850d1461012e575b600080fd5b6100bd60048036038101906100b89190610716565b610204565b6040516100cb92919061076b565b60405180910390f35b6100dc610238565b6040516100e99190610794565b60405180910390f35b6100fa61023e565b604051610107919061082e565b60405180910390f35b610118610262565b604051610125919061096b565b60405180910390f35b6101366103d3565b6040516101439190610794565b60405180910390f35b610154610407565b6040516101619190610794565b60405180910390f35b610184600480360381019061017f91906109cb565b61048f565b6040516101919190610794565b60405180910390f35b6101b460048036038101906101af91906109f8565b6104a7565b005b6101be610588565b6040516101cb9190610a38565b60405180910390f35b6101ee60048036038101906101e991906109cb565b6105bc565b6040516101fb9190610794565b60405180910390f35b6003818154811061021457600080fd5b90600052602060002090600202016000915090508060000154908060010154905082565b60015481565b60008054906101000a900473ffffffffffffffffffffffffffffffffffffffff1681565b6060600060038054905067ffffffffffffffff81111561028557610284610a53565b5b6040519080825280602002602001820160405280156102be57816020015b6102ab6106ad565b8152602001906001900390816102a35790505b50905060005b6003805490508110156103cb5760007f4e6f00000000000000000000000000000000000000000000000000000000000090506102fe610407565b8203610328577f2a2a596573212a2a00000000000000000000000000000000000000000000000090505b600060405180608001604052808481526020016003858154811061034f5761034e610a82565b5b90600052602060002090600202016000015481526020016003858154811061037a57610379610a82565b5b9060005260206000209060020201600101548152602001838152509050808484815181106103ab576103aa610a82565b5b6020026020010181905250505080806103c390610ae0565b9150506102c4565b508091505090565b600060036103df610407565b815481106103f0576103ef610a82565b5b906000526020600020906002020160010154905090565b6000806000905060005b60038054905081101561048a57816003828154811061043357610432610a82565b5b9060005260206000209060020201600101541115610477576003818154811061045f5761045e610a82565b5b90600052602060002090600202016001015491508092505b808061048290610ae0565b915050610411565b505090565b60026020528060005260406000206000915090505481565b6104b0336105bc565b8111156104f2576040517f08c379a00000000000000000000000000000000000000000000000000000000081526004016104e990610bab565b60405180910390fd5b806003838154811061050757610506610a82565b5b906000526020600020906002020160010160008282546105279190610bcb565b9250508190555080600260003373ffffffffffffffffffffffffffffffffffffffff1673ffffffffffffffffffffffffffffffffffffffff168152602001908152602001600020600082825461057d9190610bcb565b925050819055505050565b60006003610594610407565b815481106105a5576105a4610a82565b5b906000526020600020906002020160000154905090565b6000600260008373ffffffffffffffffffffffffffffffffffffffff1673ffffffffffffffffffffffffffffffffffffffff1681526020019081526020016000205460008054906101000a900473ffffffffffffffffffffffffffffffffffffffff1673ffffffffffffffffffffffffffffffffffffffff16633a46b1a8846001546040518363ffffffff1660e01b815260040161065b929190610c0e565b602060405180830381865afa158015610678573d6000803e3d6000fd5b505050506040513d601f19601f8201168201806040525081019061069c9190610c4c565b6106a69190610c79565b9050919050565b6040518060800160405280600081526020016000801916815260200160008152602001600080191681525090565b600080fd5b6000819050919050565b6106f3816106e0565b81146106fe57600080fd5b50565b600081359050610710816106ea565b92915050565b60006020828403121561072c5761072b6106db565b5b600061073a84828501610701565b91505092915050565b6000819050919050565b61075681610743565b82525050565b610765816106e0565b82525050565b6000604082019050610780600083018561074d565b61078d602083018461075c565b9392505050565b60006020820190506107a9600083018461075c565b92915050565b600073ffffffffffffffffffffffffffffffffffffffff82169050919050565b6000819050919050565b60006107f46107ef6107ea846107af565b6107cf565b6107af565b9050919050565b6000610806826107d9565b9050919050565b6000610818826107fb565b9050919050565b6108288161080d565b82525050565b6000602082019050610843600083018461081f565b92915050565b600081519050919050565b600082825260208201905092915050565b6000819050602082019050919050565b61087e816106e0565b82525050565b61088d81610743565b82525050565b6080820160008201516108a96000850182610875565b5060208201516108bc6020850182610884565b5060408201516108cf6040850182610875565b5060608201516108e26060850182610884565b50505050565b60006108f48383610893565b60808301905092915050565b6000602082019050919050565b600061091882610849565b6109228185610854565b935061092d83610865565b8060005b8381101561095e57815161094588826108e8565b975061095083610900565b925050600181019050610931565b5085935050505092915050565b60006020820190508181036000830152610985818461090d565b905092915050565b6000610998826107af565b9050919050565b6109a88161098d565b81146109b357600080fd5b50565b6000813590506109c58161099f565b92915050565b6000602082840312156109e1576109e06106db565b5b60006109ef848285016109b6565b91505092915050565b60008060408385031215610a0f57610a0e6106db565b5b6000610a1d85828601610701565b9250506020610a2e85828601610701565b9150509250929050565b6000602082019050610a4d600083018461074d565b92915050565b7f4e487b7100000000000000000000000000000000000000000000000000000000600052604160045260246000fd5b7f4e487b7100000000000000000000000000000000000000000000000000000000600052603260045260246000fd5b7f4e487b7100000000000000000000000000000000000000000000000000000000600052601160045260246000fd5b6000610aeb826106e0565b91507fffffffffffffffffffffffffffffffffffffffffffffffffffffffffffffffff8203610b1d57610b1c610ab1565b5b600182019050919050565b600082825260208201905092915050565b7f416d6f756e74206c657373207468616e2072656d61696e696e6720766f74652060008201527f706f776572000000000000000000000000000000000000000000000000000000602082015250565b6000610b95602583610b28565b9150610ba082610b39565b604082019050919050565b60006020820190508181036000830152610bc481610b88565b9050919050565b6000610bd6826106e0565b9150610be1836106e0565b9250828201905080821115610bf957610bf8610ab1565b5b92915050565b610c088161098d565b82525050565b6000604082019050610c236000830185610bff565b610c30602083018461075c565b9392505050565b600081519050610c46816106ea565b92915050565b600060208284031215610c6257610c616106db565b5b6000610c7084828501610c37565b91505092915050565b6000610c84826106e0565b9150610c8f836106e0565b9250828203905081811115610ca757610ca6610ab1565b5b9291505056fea264697066735822122030cf38c4b7fa0ed05f3c8341854e5794fef5724637685b3ca0ddf0d9023a8ea764736f6c63430008110033",
  "linkReferences": {},
  "deployedLinkReferences": {}
}